{
  "contractName": "Food_redistribution",
  "abi": [
    {
      "inputs": [],
      "payable": false,
      "stateMutability": "nonpayable",
      "type": "constructor"
    },
    {
      "anonymous": false,
      "inputs": [
        {
          "indexed": false,
          "internalType": "address payable",
          "name": "admin",
          "type": "address"
        },
        {
          "indexed": false,
          "internalType": "uint256",
          "name": "donate_tip",
          "type": "uint256"
        }
      ],
      "name": "AdminCreated",
      "type": "event"
    },
    {
      "anonymous": false,
      "inputs": [
        {
          "indexed": false,
          "internalType": "uint256",
          "name": "id",
          "type": "uint256"
        },
        {
          "indexed": false,
          "internalType": "string",
          "name": "food_type",
          "type": "string"
        },
        {
          "indexed": false,
          "internalType": "string",
          "name": "food_name",
          "type": "string"
        },
        {
          "indexed": false,
          "internalType": "string",
          "name": "image",
          "type": "string"
        },
        {
          "indexed": false,
          "internalType": "int256",
          "name": "latitude",
          "type": "int256"
        },
        {
          "indexed": false,
          "internalType": "int256",
          "name": "longitude",
          "type": "int256"
        },
        {
          "indexed": false,
          "internalType": "string",
          "name": "pick_up_time_from",
          "type": "string"
        },
        {
          "indexed": false,
          "internalType": "string",
          "name": "pick_up_time_to",
          "type": "string"
        },
        {
          "indexed": false,
          "internalType": "address",
          "name": "donor",
          "type": "address"
        }
      ],
      "name": "PostCreated",
      "type": "event"
    },
    {
      "anonymous": false,
      "inputs": [
        {
          "indexed": false,
          "internalType": "address payable",
          "name": "admin",
          "type": "address"
        },
        {
          "indexed": false,
          "internalType": "uint256",
          "name": "donate_tip",
          "type": "uint256"
        }
      ],
      "name": "Tipped",
      "type": "event"
    },
    {
      "anonymous": false,
      "inputs": [
        {
          "indexed": false,
          "internalType": "uint256",
          "name": "userId",
          "type": "uint256"
        },
        {
          "indexed": false,
          "internalType": "string",
          "name": "userName",
          "type": "string"
        },
        {
          "indexed": false,
          "internalType": "string",
          "name": "Address",
          "type": "string"
        },
        {
          "indexed": false,
          "internalType": "uint256[10]",
          "name": "phone_no",
          "type": "uint256[10]"
        },
        {
          "indexed": false,
          "internalType": "address",
          "name": "user",
          "type": "address"
        }
      ],
      "name": "UserCreated",
      "type": "event"
    },
    {
      "constant": true,
      "inputs": [],
      "name": "donorCount",
      "outputs": [
        {
          "internalType": "uint256",
          "name": "",
          "type": "uint256"
        }
      ],
      "payable": false,
      "stateMutability": "view",
      "type": "function"
    },
    {
      "constant": true,
      "inputs": [
        {
          "internalType": "uint256",
          "name": "",
          "type": "uint256"
        }
      ],
      "name": "donorPosts",
      "outputs": [
        {
          "internalType": "uint256",
          "name": "id",
          "type": "uint256"
        },
        {
          "internalType": "string",
          "name": "food_type",
          "type": "string"
        },
        {
          "internalType": "string",
          "name": "food_name",
          "type": "string"
        },
        {
          "internalType": "string",
          "name": "image",
          "type": "string"
        },
        {
          "internalType": "int256",
          "name": "latitude",
          "type": "int256"
        },
        {
          "internalType": "int256",
          "name": "longitude",
          "type": "int256"
        },
        {
          "internalType": "string",
          "name": "pick_up_time_from",
          "type": "string"
        },
        {
          "internalType": "string",
          "name": "pick_up_time_to",
          "type": "string"
        },
        {
          "internalType": "address",
          "name": "donor",
          "type": "address"
        }
      ],
      "payable": false,
      "stateMutability": "view",
      "type": "function"
    },
    {
      "constant": true,
      "inputs": [],
      "name": "name",
      "outputs": [
        {
          "internalType": "string",
          "name": "",
          "type": "string"
        }
      ],
      "payable": false,
      "stateMutability": "view",
      "type": "function"
    },
    {
      "constant": true,
      "inputs": [],
      "name": "userCount",
      "outputs": [
        {
          "internalType": "uint256",
          "name": "",
          "type": "uint256"
        }
      ],
      "payable": false,
      "stateMutability": "view",
      "type": "function"
    },
    {
      "constant": true,
      "inputs": [
        {
          "internalType": "uint256",
          "name": "",
          "type": "uint256"
        }
      ],
      "name": "users",
      "outputs": [
        {
          "internalType": "uint256",
          "name": "userId",
          "type": "uint256"
        },
        {
          "internalType": "string",
          "name": "userName",
          "type": "string"
        },
        {
          "internalType": "string",
          "name": "Address",
          "type": "string"
        },
        {
          "internalType": "address",
          "name": "user",
          "type": "address"
        }
      ],
      "payable": false,
      "stateMutability": "view",
      "type": "function"
    },
    {
      "constant": false,
      "inputs": [
        {
          "internalType": "string",
          "name": "_userName",
          "type": "string"
        },
        {
          "internalType": "string",
          "name": "_Address",
          "type": "string"
        },
        {
          "internalType": "uint256[10]",
          "name": "_phone_no",
          "type": "uint256[10]"
        }
      ],
      "name": "createUser",
      "outputs": [],
      "payable": false,
      "stateMutability": "nonpayable",
      "type": "function"
    },
    {
      "constant": false,
      "inputs": [],
      "name": "createAdmin",
      "outputs": [],
      "payable": false,
      "stateMutability": "nonpayable",
      "type": "function"
    },
    {
      "constant": false,
      "inputs": [],
      "name": "tip_us",
      "outputs": [],
      "payable": true,
      "stateMutability": "payable",
      "type": "function"
    },
    {
      "constant": false,
      "inputs": [
        {
          "internalType": "string",
          "name": "_food_type",
          "type": "string"
        },
        {
          "internalType": "string",
          "name": "_food_name",
          "type": "string"
        },
        {
          "internalType": "string",
          "name": "_image",
          "type": "string"
        },
        {
          "internalType": "int256",
          "name": "_latitude",
          "type": "int256"
        },
        {
          "internalType": "int256",
          "name": "_longitude",
          "type": "int256"
        },
        {
          "internalType": "string",
          "name": "_from",
          "type": "string"
        },
        {
          "internalType": "string",
          "name": "_to",
          "type": "string"
        }
      ],
      "name": "createDonorPost",
      "outputs": [],
      "payable": false,
      "stateMutability": "nonpayable",
      "type": "function"
    },
    {
      "constant": false,
      "inputs": [
        {
          "internalType": "uint256",
          "name": "_id",
          "type": "uint256"
        }
      ],
      "name": "deleteDonorPost",
      "outputs": [],
      "payable": false,
      "stateMutability": "nonpayable",
      "type": "function"
    }
  ],
  "bytecode": "0x6080604052600060015560006002553480156200001b57600080fd5b506040518060400160405280601981526020017f466f6f64207761737465205265646973747269627574696f6e00000000000000815250600090805190602001906200006992919062000070565b506200011f565b828054600181600116156101000203166002900490600052602060002090601f016020900481019282601f10620000b357805160ff1916838001178555620000e4565b82800160010185558215620000e4579182015b82811115620000e3578251825591602001919060010190620000c6565b5b509050620000f39190620000f7565b5090565b6200011c91905b8082111562000118576000816000905550600101620000fe565b5090565b90565b611bc9806200012f6000396000f3fe6080604052600436106100915760003560e01c806363cb19e71161005957806363cb19e71461061e5780638abcf4bb146107c0578063c407670f14610a6c578063c83db51c14610a97578063e92980c514610aa157610091565b806306fdde031461009657806307973ccf14610126578063121d432514610151578063365b98b21461018c5780635c514bb5146102e6575b600080fd5b3480156100a257600080fd5b506100ab610ab8565b6040518080602001828103825283818151815260200191508051906020019080838360005b838110156100eb5780820151818401526020810190506100d0565b50505050905090810190601f1680156101185780820380516001836020036101000a031916815260200191505b509250505060405180910390f35b34801561013257600080fd5b5061013b610b56565b6040518082815260200191505060405180910390f35b34801561015d57600080fd5b5061018a6004803603602081101561017457600080fd5b8101908080359060200190929190505050610b5c565b005b34801561019857600080fd5b506101c5600480360360208110156101af57600080fd5b8101908080359060200190929190505050610c04565b6040518085815260200180602001806020018473ffffffffffffffffffffffffffffffffffffffff1673ffffffffffffffffffffffffffffffffffffffff168152602001838103835286818151815260200191508051906020019080838360005b83811015610241578082015181840152602081019050610226565b50505050905090810190601f16801561026e5780820380516001836020036101000a031916815260200191505b50838103825285818151815260200191508051906020019080838360005b838110156102a757808201518184015260208101905061028c565b50505050905090810190601f1680156102d45780820380516001836020036101000a031916815260200191505b50965050505050505060405180910390f35b3480156102f257600080fd5b5061061c600480360360e081101561030957600080fd5b810190808035906020019064010000000081111561032657600080fd5b82018360208201111561033857600080fd5b8035906020019184600183028401116401000000008311171561035a57600080fd5b91908080601f016020809104026020016040519081016040528093929190818152602001838380828437600081840152601f19601f820116905080830192505050505050509192919290803590602001906401000000008111156103bd57600080fd5b8201836020820111156103cf57600080fd5b803590602001918460018302840111640100000000831117156103f157600080fd5b91908080601f016020809104026020016040519081016040528093929190818152602001838380828437600081840152601f19601f8201169050808301925050505050505091929192908035906020019064010000000081111561045457600080fd5b82018360208201111561046657600080fd5b8035906020019184600183028401116401000000008311171561048857600080fd5b91908080601f016020809104026020016040519081016040528093929190818152602001838380828437600081840152601f19601f8201169050808301925050505050505091929192908035906020019092919080359060200190929190803590602001906401000000008111156104ff57600080fd5b82018360208201111561051157600080fd5b8035906020019184600183028401116401000000008311171561053357600080fd5b91908080601f016020809104026020016040519081016040528093929190818152602001838380828437600081840152601f19601f8201169050808301925050505050505091929192908035906020019064010000000081111561059657600080fd5b8201836020820111156105a857600080fd5b803590602001918460018302840111640100000000831117156105ca57600080fd5b91908080601f016020809104026020016040519081016040528093929190818152602001838380828437600081840152601f19601f820116905080830192505050505050509192919290505050610d84565b005b34801561062a57600080fd5b506107be600480360361018081101561064257600080fd5b810190808035906020019064010000000081111561065f57600080fd5b82018360208201111561067157600080fd5b8035906020019184600183028401116401000000008311171561069357600080fd5b91908080601f016020809104026020016040519081016040528093929190818152602001838380828437600081840152601f19601f820116905080830192505050505050509192919290803590602001906401000000008111156106f657600080fd5b82018360208201111561070857600080fd5b8035906020019184600183028401116401000000008311171561072a57600080fd5b91908080601f016020809104026020016040519081016040528093929190818152602001838380828437600081840152601f19601f820116905080830192505050505050509192919290806101400190600a806020026040519081016040528092919082600a60200280828437600081840152601f19601f82011690508083019250505050505091929192905050506111b2565b005b3480156107cc57600080fd5b506107f9600480360360208110156107e357600080fd5b810190808035906020019092919050505061143a565b604051808a815260200180602001806020018060200189815260200188815260200180602001806020018773ffffffffffffffffffffffffffffffffffffffff1673ffffffffffffffffffffffffffffffffffffffff16815260200186810386528e818151815260200191508051906020019080838360005b8381101561088d578082015181840152602081019050610872565b50505050905090810190601f1680156108ba5780820380516001836020036101000a031916815260200191505b5086810385528d818151815260200191508051906020019080838360005b838110156108f35780820151818401526020810190506108d8565b50505050905090810190601f1680156109205780820380516001836020036101000a031916815260200191505b5086810384528c818151815260200191508051906020019080838360005b8381101561095957808201518184015260208101905061093e565b50505050905090810190601f1680156109865780820380516001836020036101000a031916815260200191505b50868103835289818151815260200191508051906020019080838360005b838110156109bf5780820151818401526020810190506109a4565b50505050905090810190601f1680156109ec5780820380516001836020036101000a031916815260200191505b50868103825288818151815260200191508051906020019080838360005b83811015610a25578082015181840152602081019050610a0a565b50505050905090810190601f168015610a525780820380516001836020036101000a031916815260200191505b509e50505050505050505050505050505060405180910390f35b348015610a7857600080fd5b50610a816117a0565b6040518082815260200191505060405180910390f35b610a9f6117a6565b005b348015610aad57600080fd5b50610ab6611947565b005b60008054600181600116156101000203166002900480601f016020809104026020016040519081016040528092919081815260200182805460018160011615610100020316600290048015610b4e5780601f10610b2357610100808354040283529160200191610b4e565b820191906000526020600020905b815481529060010190602001808311610b3157829003601f168201915b505050505081565b60025481565b60056000828152602001908152602001600020600080820160009055600182016000610b889190611a37565b600282016000610b989190611a37565b600382016000610ba89190611a37565b60048201600090556005820160009055600682016000610bc89190611a37565b600782016000610bd89190611a37565b6008820160006101000a81549073ffffffffffffffffffffffffffffffffffffffff0219169055505050565b6006602052806000526040600020600091509050806000015490806001018054600181600116156101000203166002900480601f016020809104026020016040519081016040528092919081815260200182805460018160011615610100020316600290048015610cb65780601f10610c8b57610100808354040283529160200191610cb6565b820191906000526020600020905b815481529060010190602001808311610c9957829003601f168201915b505050505090806002018054600181600116156101000203166002900480601f016020809104026020016040519081016040528092919081815260200182805460018160011615610100020316600290048015610d545780601f10610d2957610100808354040283529160200191610d54565b820191906000526020600020905b815481529060010190602001808311610d3757829003601f168201915b50505050509080600d0160009054906101000a900473ffffffffffffffffffffffffffffffffffffffff16905084565b6000875111610d9257600080fd5b60016000815480929190600101919050555060405180610120016040528060015481526020018881526020018781526020018681526020018581526020018481526020018381526020018281526020013373ffffffffffffffffffffffffffffffffffffffff16815250600560006001548152602001908152602001600020600082015181600001556020820151816001019080519060200190610e37929190611a7f565b506040820151816002019080519060200190610e54929190611a7f565b506060820151816003019080519060200190610e71929190611a7f565b506080820151816004015560a0820151816005015560c0820151816006019080519060200190610ea2929190611a7f565b5060e0820151816007019080519060200190610ebf929190611a7f565b506101008201518160080160006101000a81548173ffffffffffffffffffffffffffffffffffffffff021916908373ffffffffffffffffffffffffffffffffffffffff1602179055509050507f3638c938e30e7d3ff2e6f6551dd309b769e06877e0184d1579feadb78c87b9996001548888888888888833604051808a815260200180602001806020018060200189815260200188815260200180602001806020018773ffffffffffffffffffffffffffffffffffffffff1673ffffffffffffffffffffffffffffffffffffffff16815260200186810386528e818151815260200191508051906020019080838360005b83811015610fcb578082015181840152602081019050610fb0565b50505050905090810190601f168015610ff85780820380516001836020036101000a031916815260200191505b5086810385528d818151815260200191508051906020019080838360005b83811015611031578082015181840152602081019050611016565b50505050905090810190601f16801561105e5780820380516001836020036101000a031916815260200191505b5086810384528c818151815260200191508051906020019080838360005b8381101561109757808201518184015260208101905061107c565b50505050905090810190601f1680156110c45780820380516001836020036101000a031916815260200191505b50868103835289818151815260200191508051906020019080838360005b838110156110fd5780820151818401526020810190506110e2565b50505050905090810190601f16801561112a5780820380516001836020036101000a031916815260200191505b50868103825288818151815260200191508051906020019080838360005b83811015611163578082015181840152602081019050611148565b50505050905090810190601f1680156111905780820380516001836020036101000a031916815260200191505b509e50505050505050505050505050505060405180910390a150505050505050565b6002600081548092919060010191905055506040518060a0016040528060025481526020018481526020018381526020018281526020013373ffffffffffffffffffffffffffffffffffffffff1681525060066000600254815260200190815260200160002060008201518160000155602082015181600101908051906020019061123e929190611a7f565b50604082015181600201908051906020019061125b929190611a7f565b5060608201518160030190600a611273929190611aff565b50608082015181600d0160006101000a81548173ffffffffffffffffffffffffffffffffffffffff021916908373ffffffffffffffffffffffffffffffffffffffff1602179055509050507f0f1c4fd78be1f4712deb60c0ed56c65ff629537cd989fda0a0adaef9097ca6806002548484843360405180868152602001806020018060200185600a60200280838360005b8381101561131f578082015181840152602081019050611304565b505050509050018473ffffffffffffffffffffffffffffffffffffffff1673ffffffffffffffffffffffffffffffffffffffff168152602001838103835287818151815260200191508051906020019080838360005b83811015611390578082015181840152602081019050611375565b50505050905090810190601f1680156113bd5780820380516001836020036101000a031916815260200191505b50838103825286818151815260200191508051906020019080838360005b838110156113f65780820151818401526020810190506113db565b50505050905090810190601f1680156114235780820380516001836020036101000a031916815260200191505b5097505050505050505060405180910390a1505050565b6005602052806000526040600020600091509050806000015490806001018054600181600116156101000203166002900480601f0160208091040260200160405190810160405280929190818152602001828054600181600116156101000203166002900480156114ec5780601f106114c1576101008083540402835291602001916114ec565b820191906000526020600020905b8154815290600101906020018083116114cf57829003601f168201915b505050505090806002018054600181600116156101000203166002900480601f01602080910402602001604051908101604052809291908181526020018280546001816001161561010002031660029004801561158a5780601f1061155f5761010080835404028352916020019161158a565b820191906000526020600020905b81548152906001019060200180831161156d57829003601f168201915b505050505090806003018054600181600116156101000203166002900480601f0160208091040260200160405190810160405280929190818152602001828054600181600116156101000203166002900480156116285780601f106115fd57610100808354040283529160200191611628565b820191906000526020600020905b81548152906001019060200180831161160b57829003601f168201915b505050505090806004015490806005015490806006018054600181600116156101000203166002900480601f0160208091040260200160405190810160405280929190818152602001828054600181600116156101000203166002900480156116d25780601f106116a7576101008083540402835291602001916116d2565b820191906000526020600020905b8154815290600101906020018083116116b557829003601f168201915b505050505090806007018054600181600116156101000203166002900480601f0160208091040260200160405190810160405280929190818152602001828054600181600116156101000203166002900480156117705780601f1061174557610100808354040283529160200191611770565b820191906000526020600020905b81548152906001019060200180831161175357829003601f168201915b5050505050908060080160009054906101000a900473ffffffffffffffffffffffffffffffffffffffff16905089565b60015481565b6117ae611b3f565b60036040518060400160405290816000820160009054906101000a900473ffffffffffffffffffffffffffffffffffffffff1673ffffffffffffffffffffffffffffffffffffffff1673ffffffffffffffffffffffffffffffffffffffff16815260200160018201548152505090506000816000015190508073ffffffffffffffffffffffffffffffffffffffff166108fc349081150290604051600060405180830381858888f1935050505015801561186c573d6000803e3d6000fd5b503482602001510182602001818152505081600360008201518160000160006101000a81548173ffffffffffffffffffffffffffffffffffffffff021916908373ffffffffffffffffffffffffffffffffffffffff160217905550602082015181600101559050507f905516bf815c273f240e1d48d78ea7db3f1f0d00b912fc69522caf0ea70450a2818360200151604051808373ffffffffffffffffffffffffffffffffffffffff1673ffffffffffffffffffffffffffffffffffffffff1681526020018281526020019250505060405180910390a15050565b60405180604001604052803373ffffffffffffffffffffffffffffffffffffffff1681526020016000815250600360008201518160000160006101000a81548173ffffffffffffffffffffffffffffffffffffffff021916908373ffffffffffffffffffffffffffffffffffffffff160217905550602082015181600101559050507f98a2081c7d30e9c0f415b78910c4024f08d345423e7cabb6b9c0569214ea605f336000604051808373ffffffffffffffffffffffffffffffffffffffff1673ffffffffffffffffffffffffffffffffffffffff1681526020018281526020019250505060405180910390a1565b50805460018160011615610100020316600290046000825580601f10611a5d5750611a7c565b601f016020900490600052602060002090810190611a7b9190611b6f565b5b50565b828054600181600116156101000203166002900490600052602060002090601f016020900481019282601f10611ac057805160ff1916838001178555611aee565b82800160010185558215611aee579182015b82811115611aed578251825591602001919060010190611ad2565b5b509050611afb9190611b6f565b5090565b82600a8101928215611b2e579160200282015b82811115611b2d578251825591602001919060010190611b12565b5b509050611b3b9190611b6f565b5090565b6040518060400160405280600073ffffffffffffffffffffffffffffffffffffffff168152602001600081525090565b611b9191905b80821115611b8d576000816000905550600101611b75565b5090565b9056fea265627a7a72315820501c45e17d663d3b2e35986e26ac229ea70e5988ffd4172c5f47781d7467bc3464736f6c63430005100032",
  "source": "pragma solidity ^0.5.0;\r\n\r\ncontract Food_redistribution{\r\n    string public name;\r\n    uint public donorCount = 0;\r\n    uint public userCount = 0;\r\n    Admin superAdmin; \r\n    mapping(uint => Donate_post) public donorPosts;\r\n    mapping(uint => User) public users;\r\n\r\n    struct User{\r\n        uint userId;\r\n        string userName;\r\n        string Address;\r\n        uint256[10] Phone_no;\r\n        address user;\r\n    }\r\n\r\n    struct Admin{\r\n        address payable admin;\r\n        uint donate_tip;\r\n    }\r\n\r\n    struct Donate_post {\r\n       uint id;\r\n       string food_type;\r\n       string food_name;\r\n       string image;\r\n       int latitude;\r\n       int longitude;\r\n       string pick_up_time_from;\r\n       string pick_up_time_to;\r\n       address donor;\r\n    }\r\n\r\n    event UserCreated(\r\n        uint userId,\r\n        string userName,\r\n        string Address,\r\n        uint256[10] phone_no,\r\n        address user\r\n    );\r\n\r\n    event AdminCreated(\r\n        address payable admin,\r\n        uint donate_tip\r\n    );\r\n    \r\n    event Tipped(\r\n        address payable admin,\r\n        uint donate_tip\r\n    );\r\n\r\n    event PostCreated(\r\n        uint id,\r\n        string food_type,\r\n        string food_name,\r\n        string image,\r\n        int latitude,\r\n        int longitude,\r\n        string pick_up_time_from,\r\n        string pick_up_time_to,\r\n        address donor\r\n    );\r\n\r\n    constructor() public {\r\n        name = \"Food waste Redistribution\";\r\n    }\r\n\r\n    function createUser(string memory _userName, string memory _Address, uint256[10] memory _phone_no) public {\r\n        userCount++;\r\n        users[userCount] = User(userCount, _userName, _Address, _phone_no, msg.sender);\r\n        emit UserCreated(userCount, _userName, _Address, _phone_no, msg.sender);\r\n    }\r\n\r\n    function createAdmin() public {\r\n        superAdmin =Admin(msg.sender, 0);\r\n        emit AdminCreated(msg.sender, 0);\r\n    }\r\n\r\n    function tip_us() public payable{\r\n\r\n        Admin memory _superAdmin = superAdmin;\r\n        address payable _admin = _superAdmin.admin;\r\n        address(_admin).transfer(msg.value);\r\n        _superAdmin.donate_tip = _superAdmin.donate_tip+msg.value;\r\n\r\n        superAdmin = _superAdmin;\r\n\r\n        emit Tipped(_admin, _superAdmin.donate_tip);\r\n    }\r\n\r\n    function createDonorPost(string memory _food_type,string memory _food_name,string memory _image, int _latitude, int _longitude, string memory _from, string memory _to) public {\r\n        require(bytes(_food_type).length >0);\r\n        donorCount++;\r\n        donorPosts[donorCount] = Donate_post(donorCount, _food_type, _food_name,_image, _latitude, _longitude, _from, _to, msg.sender);\r\n        emit PostCreated(donorCount, _food_type, _food_name,_image, _latitude, _longitude, _from, _to, msg.sender);\r\n    }\r\n\r\n    function deleteDonorPost(uint _id) public{\r\n        delete donorPosts[_id];\r\n    }\r\n}",
  "sourcePath": "C:/Users/LENOVO/hunger_helper/src/contracts/Food_redistribution.sol",
  "compiler": {
    "name": "solc",
    "version": "0.5.16+commit.9c3226ce.Emscripten.clang"
  },
  "schemaVersion": "3.4.1",
  "updatedAt": "2021-05-15T15:28:15.446Z",
  "networkType": "ethereum",
  "devdoc": {
    "methods": {}
  },
  "userdoc": {
    "methods": {}
  }
}